{
  "_format": "hh-sol-artifact-1",
  "contractName": "DeviantsFactionsNFT",
  "sourceName": "contracts/DeviantsFactionsNFT.sol",
  "abi": [
    {
      "inputs": [],
      "stateMutability": "nonpayable",
      "type": "constructor"
    },
    {
      "anonymous": false,
      "inputs": [
        {
          "indexed": true,
          "internalType": "address",
          "name": "owner",
          "type": "address"
        },
        {
          "indexed": true,
          "internalType": "address",
          "name": "approved",
          "type": "address"
        },
        {
          "indexed": true,
          "internalType": "uint256",
          "name": "tokenId",
          "type": "uint256"
        }
      ],
      "name": "Approval",
      "type": "event"
    },
    {
      "anonymous": false,
      "inputs": [
        {
          "indexed": true,
          "internalType": "address",
          "name": "owner",
          "type": "address"
        },
        {
          "indexed": true,
          "internalType": "address",
          "name": "operator",
          "type": "address"
        },
        {
          "indexed": false,
          "internalType": "bool",
          "name": "approved",
          "type": "bool"
        }
      ],
      "name": "ApprovalForAll",
      "type": "event"
    },
    {
      "anonymous": false,
      "inputs": [
        {
          "indexed": true,
          "internalType": "address",
          "name": "to",
          "type": "address"
        },
        {
          "indexed": true,
          "internalType": "uint256",
          "name": "tokenId",
          "type": "uint256"
        },
        {
          "indexed": false,
          "internalType": "uint32",
          "name": "value",
          "type": "uint32"
        }
      ],
      "name": "Mint",
      "type": "event"
    },
    {
      "anonymous": false,
      "inputs": [
        {
          "indexed": true,
          "internalType": "address",
          "name": "previousOwner",
          "type": "address"
        },
        {
          "indexed": true,
          "internalType": "address",
          "name": "newOwner",
          "type": "address"
        }
      ],
      "name": "OwnershipTransferred",
      "type": "event"
    },
    {
      "anonymous": false,
      "inputs": [
        {
          "indexed": true,
          "internalType": "address",
          "name": "from",
          "type": "address"
        },
        {
          "indexed": true,
          "internalType": "address",
          "name": "to",
          "type": "address"
        },
        {
          "indexed": true,
          "internalType": "uint256",
          "name": "tokenId",
          "type": "uint256"
        }
      ],
      "name": "Transfer",
      "type": "event"
    },
    {
      "inputs": [
        {
          "internalType": "address",
          "name": "to",
          "type": "address"
        },
        {
          "internalType": "uint256",
          "name": "tokenId",
          "type": "uint256"
        }
      ],
      "name": "approve",
      "outputs": [],
      "stateMutability": "nonpayable",
      "type": "function"
    },
    {
      "inputs": [
        {
          "internalType": "address",
          "name": "owner",
          "type": "address"
        }
      ],
      "name": "balanceOf",
      "outputs": [
        {
          "internalType": "uint256",
          "name": "",
          "type": "uint256"
        }
      ],
      "stateMutability": "view",
      "type": "function"
    },
    {
      "inputs": [],
      "name": "count",
      "outputs": [
        {
          "internalType": "uint32",
          "name": "",
          "type": "uint32"
        }
      ],
      "stateMutability": "view",
      "type": "function"
    },
    {
      "inputs": [
        {
          "internalType": "uint256",
          "name": "tokenId",
          "type": "uint256"
        }
      ],
      "name": "getApproved",
      "outputs": [
        {
          "internalType": "address",
          "name": "",
          "type": "address"
        }
      ],
      "stateMutability": "view",
      "type": "function"
    },
    {
      "inputs": [
        {
          "internalType": "address",
          "name": "owner",
          "type": "address"
        },
        {
          "internalType": "address",
          "name": "operator",
          "type": "address"
        }
      ],
      "name": "isApprovedForAll",
      "outputs": [
        {
          "internalType": "bool",
          "name": "",
          "type": "bool"
        }
      ],
      "stateMutability": "view",
      "type": "function"
    },
    {
      "inputs": [
        {
          "internalType": "address",
          "name": "to",
          "type": "address"
        },
        {
          "internalType": "uint32",
          "name": "value",
          "type": "uint32"
        }
      ],
      "name": "mint",
      "outputs": [],
      "stateMutability": "nonpayable",
      "type": "function"
    },
    {
      "inputs": [],
      "name": "minter",
      "outputs": [
        {
          "internalType": "address",
          "name": "",
          "type": "address"
        }
      ],
      "stateMutability": "view",
      "type": "function"
    },
    {
      "inputs": [],
      "name": "name",
      "outputs": [
        {
          "internalType": "string",
          "name": "",
          "type": "string"
        }
      ],
      "stateMutability": "view",
      "type": "function"
    },
    {
      "inputs": [],
      "name": "owner",
      "outputs": [
        {
          "internalType": "address",
          "name": "",
          "type": "address"
        }
      ],
      "stateMutability": "view",
      "type": "function"
    },
    {
      "inputs": [
        {
          "internalType": "uint256",
          "name": "tokenId",
          "type": "uint256"
        }
      ],
      "name": "ownerOf",
      "outputs": [
        {
          "internalType": "address",
          "name": "",
          "type": "address"
        }
      ],
      "stateMutability": "view",
      "type": "function"
    },
    {
      "inputs": [],
      "name": "renounceOwnership",
      "outputs": [],
      "stateMutability": "nonpayable",
      "type": "function"
    },
    {
      "inputs": [
        {
          "internalType": "address",
          "name": "from",
          "type": "address"
        },
        {
          "internalType": "address",
          "name": "to",
          "type": "address"
        },
        {
          "internalType": "uint256",
          "name": "tokenId",
          "type": "uint256"
        }
      ],
      "name": "safeTransferFrom",
      "outputs": [],
      "stateMutability": "nonpayable",
      "type": "function"
    },
    {
      "inputs": [
        {
          "internalType": "address",
          "name": "from",
          "type": "address"
        },
        {
          "internalType": "address",
          "name": "to",
          "type": "address"
        },
        {
          "internalType": "uint256",
          "name": "tokenId",
          "type": "uint256"
        },
        {
          "internalType": "bytes",
          "name": "_data",
          "type": "bytes"
        }
      ],
      "name": "safeTransferFrom",
      "outputs": [],
      "stateMutability": "nonpayable",
      "type": "function"
    },
    {
      "inputs": [
        {
          "internalType": "address",
          "name": "operator",
          "type": "address"
        },
        {
          "internalType": "bool",
          "name": "approved",
          "type": "bool"
        }
      ],
      "name": "setApprovalForAll",
      "outputs": [],
      "stateMutability": "nonpayable",
      "type": "function"
    },
    {
      "inputs": [
        {
          "internalType": "address",
          "name": "_minter",
          "type": "address"
        }
      ],
      "name": "setMinter",
      "outputs": [],
      "stateMutability": "nonpayable",
      "type": "function"
    },
    {
      "inputs": [
        {
          "internalType": "bytes4",
          "name": "interfaceId",
          "type": "bytes4"
        }
      ],
      "name": "supportsInterface",
      "outputs": [
        {
          "internalType": "bool",
          "name": "",
          "type": "bool"
        }
      ],
      "stateMutability": "view",
      "type": "function"
    },
    {
      "inputs": [],
      "name": "symbol",
      "outputs": [
        {
          "internalType": "string",
          "name": "",
          "type": "string"
        }
      ],
      "stateMutability": "view",
      "type": "function"
    },
    {
      "inputs": [
        {
          "internalType": "uint256",
          "name": "index",
          "type": "uint256"
        }
      ],
      "name": "tokenByIndex",
      "outputs": [
        {
          "internalType": "uint256",
          "name": "",
          "type": "uint256"
        }
      ],
      "stateMutability": "view",
      "type": "function"
    },
    {
      "inputs": [
        {
          "internalType": "address",
          "name": "owner",
          "type": "address"
        },
        {
          "internalType": "uint256",
          "name": "index",
          "type": "uint256"
        }
      ],
      "name": "tokenOfOwnerByIndex",
      "outputs": [
        {
          "internalType": "uint256",
          "name": "",
          "type": "uint256"
        }
      ],
      "stateMutability": "view",
      "type": "function"
    },
    {
      "inputs": [
        {
          "internalType": "uint256",
          "name": "tokenId",
          "type": "uint256"
        }
      ],
      "name": "tokenURI",
      "outputs": [
        {
          "internalType": "string",
          "name": "",
          "type": "string"
        }
      ],
      "stateMutability": "view",
      "type": "function"
    },
    {
      "inputs": [],
      "name": "totalSupply",
      "outputs": [
        {
          "internalType": "uint256",
          "name": "",
          "type": "uint256"
        }
      ],
      "stateMutability": "view",
      "type": "function"
    },
    {
      "inputs": [
        {
          "internalType": "address",
          "name": "from",
          "type": "address"
        },
        {
          "internalType": "address",
          "name": "to",
          "type": "address"
        },
        {
          "internalType": "uint256",
          "name": "tokenId",
          "type": "uint256"
        }
      ],
      "name": "transferFrom",
      "outputs": [],
      "stateMutability": "nonpayable",
      "type": "function"
    },
    {
      "inputs": [
        {
          "internalType": "address",
          "name": "newOwner",
          "type": "address"
        }
      ],
      "name": "transferOwnership",
      "outputs": [],
      "stateMutability": "nonpayable",
      "type": "function"
    },
    {
      "inputs": [
        {
          "internalType": "uint32",
          "name": "",
          "type": "uint32"
        }
      ],
      "name": "values",
      "outputs": [
        {
          "internalType": "uint32",
          "name": "",
          "type": "uint32"
        }
      ],
      "stateMutability": "view",
      "type": "function"
    }
  ],
  "bytecode": "0x6080604052600c805463ffffffff60a01b1916600160a01b1790553480156200002757600080fd5b50604080518082018252601081526f44657669616e747346616374696f6e7360801b602080830191825283518085019094526005845264111193919560da1b9084015281519192916200007d916000916200010c565b508051620000939060019060208401906200010c565b505050620000b0620000aa620000b660201b60201c565b620000ba565b620001ef565b3390565b600a80546001600160a01b038381166001600160a01b0319831681179093556040519116919082907f8be0079c531659141344cd1fd0a4f28419497f9722a3daafe3b4186f6b6457e090600090a35050565b8280546200011a90620001b2565b90600052602060002090601f0160209004810192826200013e576000855562000189565b82601f106200015957805160ff191683800117855562000189565b8280016001018555821562000189579182015b82811115620001895782518255916020019190600101906200016c565b50620001979291506200019b565b5090565b5b808211156200019757600081556001016200019c565b600181811c90821680620001c757607f821691505b60208210811415620001e957634e487b7160e01b600052602260045260246000fd5b50919050565b611da080620001ff6000396000f3fe608060405234801561001057600080fd5b50600436106101585760003560e01c806370a08231116100c3578063c87b56dd1161007c578063c87b56dd146102e4578063cd89476d146102f7578063d35e29d71461031d578063e985e9c514610330578063f2fde38b1461036c578063fca3b5aa1461037f57600080fd5b806370a082311461028a578063715018a61461029d5780638da5cb5b146102a557806395d89b41146102b6578063a22cb465146102be578063b88d4fde146102d157600080fd5b806318160ddd1161011557806318160ddd1461021957806323b872dd1461022b5780632f745c591461023e57806342842e0e146102515780634f6ccce7146102645780636352211e1461027757600080fd5b806301ffc9a71461015d57806306661abd1461018557806306fdde03146101b157806307546172146101c6578063081812fc146101f1578063095ea7b314610204575b600080fd5b61017061016b3660046117e8565b610392565b60405190151581526020015b60405180910390f35b600c5461019c90600160a01b900463ffffffff1681565b60405163ffffffff909116815260200161017c565b6101b96103bd565b60405161017c919061185d565b600c546101d9906001600160a01b031681565b6040516001600160a01b03909116815260200161017c565b6101d96101ff366004611870565b61044f565b6102176102123660046118a5565b6104e9565b005b6008545b60405190815260200161017c565b6102176102393660046118cf565b6105ff565b61021d61024c3660046118a5565b610630565b61021761025f3660046118cf565b6106c6565b61021d610272366004611870565b6106e1565b6101d9610285366004611870565b610774565b61021d61029836600461190b565b6107eb565b610217610872565b600a546001600160a01b03166101d9565b6101b96108a8565b6102176102cc366004611926565b6108b7565b6102176102df366004611978565b6108c6565b6101b96102f2366004611870565b6108fe565b61019c610305366004611a68565b600b6020526000908152604090205463ffffffff1681565b61021761032b366004611a83565b6109e6565b61017061033e366004611ab6565b6001600160a01b03918216600090815260056020908152604080832093909416825291909152205460ff1690565b61021761037a36600461190b565b610bf7565b61021761038d36600461190b565b610c92565b60006001600160e01b0319821663780e9d6360e01b14806103b757506103b782610d34565b92915050565b6060600080546103cc90611ae0565b80601f01602080910402602001604051908101604052809291908181526020018280546103f890611ae0565b80156104455780601f1061041a57610100808354040283529160200191610445565b820191906000526020600020905b81548152906001019060200180831161042857829003601f168201915b5050505050905090565b6000818152600260205260408120546001600160a01b03166104cd5760405162461bcd60e51b815260206004820152602c60248201527f4552433732313a20617070726f76656420717565727920666f72206e6f6e657860448201526b34b9ba32b73a103a37b5b2b760a11b60648201526084015b60405180910390fd5b506000908152600460205260409020546001600160a01b031690565b60006104f482610774565b9050806001600160a01b0316836001600160a01b031614156105625760405162461bcd60e51b815260206004820152602160248201527f4552433732313a20617070726f76616c20746f2063757272656e74206f776e656044820152603960f91b60648201526084016104c4565b336001600160a01b038216148061057e575061057e813361033e565b6105f05760405162461bcd60e51b815260206004820152603860248201527f4552433732313a20617070726f76652063616c6c6572206973206e6f74206f7760448201527f6e6572206e6f7220617070726f76656420666f7220616c6c000000000000000060648201526084016104c4565b6105fa8383610d84565b505050565b6106093382610df2565b6106255760405162461bcd60e51b81526004016104c490611b1b565b6105fa838383610ee9565b600061063b836107eb565b821061069d5760405162461bcd60e51b815260206004820152602b60248201527f455243373231456e756d657261626c653a206f776e657220696e646578206f7560448201526a74206f6620626f756e647360a81b60648201526084016104c4565b506001600160a01b03919091166000908152600660209081526040808320938352929052205490565b6105fa838383604051806020016040528060008152506108c6565b60006106ec60085490565b821061074f5760405162461bcd60e51b815260206004820152602c60248201527f455243373231456e756d657261626c653a20676c6f62616c20696e646578206f60448201526b7574206f6620626f756e647360a01b60648201526084016104c4565b6008828154811061076257610762611b6c565b90600052602060002001549050919050565b6000818152600260205260408120546001600160a01b0316806103b75760405162461bcd60e51b815260206004820152602960248201527f4552433732313a206f776e657220717565727920666f72206e6f6e657869737460448201526832b73a103a37b5b2b760b91b60648201526084016104c4565b60006001600160a01b0382166108565760405162461bcd60e51b815260206004820152602a60248201527f4552433732313a2062616c616e636520717565727920666f7220746865207a65604482015269726f206164647265737360b01b60648201526084016104c4565b506001600160a01b031660009081526003602052604090205490565b600a546001600160a01b0316331461089c5760405162461bcd60e51b81526004016104c490611b82565b6108a66000611090565b565b6060600180546103cc90611ae0565b6108c23383836110e2565b5050565b6108d03383610df2565b6108ec5760405162461bcd60e51b81526004016104c490611b1b565b6108f8848484846111b1565b50505050565b6000818152600260205260409020546060906001600160a01b031661097d5760405162461bcd60e51b815260206004820152602f60248201527f4552433732314d657461646174613a2055524920717565727920666f72206e6f60448201526e3732bc34b9ba32b73a103a37b5b2b760891b60648201526084016104c4565b600061099460408051602081019091526000815290565b905060008151116109b457604051806020016040528060008152506109df565b806109be846111e4565b6040516020016109cf929190611bb7565b6040516020818303038152906040525b9392505050565b600c546001600160a01b03163314610a385760405162461bcd60e51b815260206004820152601560248201527436b9b39739b2b73232b9103737ba1026b4b73a32b960591b60448201526064016104c4565b6001600160a01b038216610a8e5760405162461bcd60e51b815260206004820152601960248201527f43616e206e6f74206d696e7420746f204164647265737320300000000000000060448201526064016104c4565b8063ffffffff1660011480610aa957508063ffffffff166005145b80610aba57508063ffffffff16600a145b80610acb57508063ffffffff166014145b80610adc57508063ffffffff166032145b80610aed57508063ffffffff166064145b610b295760405162461bcd60e51b815260206004820152600d60248201526c496e76616c69642056616c756560981b60448201526064016104c4565b600c8054600160a01b9081900463ffffffff9081166000908152600b60205260409020805463ffffffff19168583161790559154610b6c928592909104166112e2565b600c5460405163ffffffff8381168252600160a01b9092049091169033907f42810bc690fb4c2a145be3ad30e7230a3441ab6625e2faa52bcc247e14ae64519060200160405180910390a3600c8054600160a01b900463ffffffff16906014610bd483611bfc565b91906101000a81548163ffffffff021916908363ffffffff160217905550505050565b600a546001600160a01b03163314610c215760405162461bcd60e51b81526004016104c490611b82565b6001600160a01b038116610c865760405162461bcd60e51b815260206004820152602660248201527f4f776e61626c653a206e6577206f776e657220697320746865207a65726f206160448201526564647265737360d01b60648201526084016104c4565b610c8f81611090565b50565b600a546001600160a01b03163314610cbc5760405162461bcd60e51b81526004016104c490611b82565b6001600160a01b038116610d125760405162461bcd60e51b815260206004820152601a60248201527f4d696e7465722063616e6e6f742062652041646472657373203000000000000060448201526064016104c4565b600c80546001600160a01b0319166001600160a01b0392909216919091179055565b60006001600160e01b031982166380ac58cd60e01b1480610d6557506001600160e01b03198216635b5e139f60e01b145b806103b757506301ffc9a760e01b6001600160e01b03198316146103b7565b600081815260046020526040902080546001600160a01b0319166001600160a01b0384169081179091558190610db982610774565b6001600160a01b03167f8c5be1e5ebec7d5bd14f71427d1e84f3dd0314c0f7b2291e5b200ac8c7c3b92560405160405180910390a45050565b6000818152600260205260408120546001600160a01b0316610e6b5760405162461bcd60e51b815260206004820152602c60248201527f4552433732313a206f70657261746f7220717565727920666f72206e6f6e657860448201526b34b9ba32b73a103a37b5b2b760a11b60648201526084016104c4565b6000610e7683610774565b9050806001600160a01b0316846001600160a01b03161480610eb15750836001600160a01b0316610ea68461044f565b6001600160a01b0316145b80610ee157506001600160a01b0380821660009081526005602090815260408083209388168352929052205460ff165b949350505050565b826001600160a01b0316610efc82610774565b6001600160a01b031614610f605760405162461bcd60e51b815260206004820152602560248201527f4552433732313a207472616e736665722066726f6d20696e636f72726563742060448201526437bbb732b960d91b60648201526084016104c4565b6001600160a01b038216610fc25760405162461bcd60e51b8152602060048201526024808201527f4552433732313a207472616e7366657220746f20746865207a65726f206164646044820152637265737360e01b60648201526084016104c4565b610fcd8383836112fc565b610fd8600082610d84565b6001600160a01b0383166000908152600360205260408120805460019290611001908490611c20565b90915550506001600160a01b038216600090815260036020526040812080546001929061102f908490611c37565b909155505060008181526002602052604080822080546001600160a01b0319166001600160a01b0386811691821790925591518493918716917fddf252ad1be2c89b69c2b068fc378daa952ba7f163c4a11628f55a4df523b3ef91a4505050565b600a80546001600160a01b038381166001600160a01b0319831681179093556040519116919082907f8be0079c531659141344cd1fd0a4f28419497f9722a3daafe3b4186f6b6457e090600090a35050565b816001600160a01b0316836001600160a01b031614156111445760405162461bcd60e51b815260206004820152601960248201527f4552433732313a20617070726f766520746f2063616c6c65720000000000000060448201526064016104c4565b6001600160a01b03838116600081815260056020908152604080832094871680845294825291829020805460ff191686151590811790915591519182527f17307eab39ab6107e8899845ad3d59bd9653f200f220920489ca2b5937696c31910160405180910390a3505050565b6111bc848484610ee9565b6111c8848484846113b4565b6108f85760405162461bcd60e51b81526004016104c490611c4f565b6060816112085750506040805180820190915260018152600360fc1b602082015290565b8160005b8115611232578061121c81611ca1565b915061122b9050600a83611cd2565b915061120c565b60008167ffffffffffffffff81111561124d5761124d611962565b6040519080825280601f01601f191660200182016040528015611277576020820181803683370190505b5090505b8415610ee15761128c600183611c20565b9150611299600a86611ce6565b6112a4906030611c37565b60f81b8183815181106112b9576112b9611b6c565b60200101906001600160f81b031916908160001a9053506112db600a86611cd2565b945061127b565b6108c28282604051806020016040528060008152506114c1565b6001600160a01b0383166113575761135281600880546000838152600960205260408120829055600182018355919091527ff3f7a9fe364faab93b216da50a3214154f22a0a2b415b23a84c8169e8b636ee30155565b61137a565b816001600160a01b0316836001600160a01b03161461137a5761137a83826114f4565b6001600160a01b038216611391576105fa81611591565b826001600160a01b0316826001600160a01b0316146105fa576105fa8282611640565b60006001600160a01b0384163b156114b657604051630a85bd0160e11b81526001600160a01b0385169063150b7a02906113f8903390899088908890600401611cfa565b602060405180830381600087803b15801561141257600080fd5b505af1925050508015611442575060408051601f3d908101601f1916820190925261143f91810190611d37565b60015b61149c573d808015611470576040519150601f19603f3d011682016040523d82523d6000602084013e611475565b606091505b5080516114945760405162461bcd60e51b81526004016104c490611c4f565b805181602001fd5b6001600160e01b031916630a85bd0160e11b149050610ee1565b506001949350505050565b6114cb8383611684565b6114d860008484846113b4565b6105fa5760405162461bcd60e51b81526004016104c490611c4f565b60006001611501846107eb565b61150b9190611c20565b60008381526007602052604090205490915080821461155e576001600160a01b03841660009081526006602090815260408083208584528252808320548484528184208190558352600790915290208190555b5060009182526007602090815260408084208490556001600160a01b039094168352600681528383209183525290812055565b6008546000906115a390600190611c20565b600083815260096020526040812054600880549394509092849081106115cb576115cb611b6c565b9060005260206000200154905080600883815481106115ec576115ec611b6c565b600091825260208083209091019290925582815260099091526040808220849055858252812055600880548061162457611624611d54565b6001900381819060005260206000200160009055905550505050565b600061164b836107eb565b6001600160a01b039093166000908152600660209081526040808320868452825280832085905593825260079052919091209190915550565b6001600160a01b0382166116da5760405162461bcd60e51b815260206004820181905260248201527f4552433732313a206d696e7420746f20746865207a65726f206164647265737360448201526064016104c4565b6000818152600260205260409020546001600160a01b03161561173f5760405162461bcd60e51b815260206004820152601c60248201527f4552433732313a20746f6b656e20616c7265616479206d696e7465640000000060448201526064016104c4565b61174b600083836112fc565b6001600160a01b0382166000908152600360205260408120805460019290611774908490611c37565b909155505060008181526002602052604080822080546001600160a01b0319166001600160a01b03861690811790915590518392907fddf252ad1be2c89b69c2b068fc378daa952ba7f163c4a11628f55a4df523b3ef908290a45050565b6001600160e01b031981168114610c8f57600080fd5b6000602082840312156117fa57600080fd5b81356109df816117d2565b60005b83811015611820578181015183820152602001611808565b838111156108f85750506000910152565b60008151808452611849816020860160208601611805565b601f01601f19169290920160200192915050565b6020815260006109df6020830184611831565b60006020828403121561188257600080fd5b5035919050565b80356001600160a01b03811681146118a057600080fd5b919050565b600080604083850312156118b857600080fd5b6118c183611889565b946020939093013593505050565b6000806000606084860312156118e457600080fd5b6118ed84611889565b92506118fb60208501611889565b9150604084013590509250925092565b60006020828403121561191d57600080fd5b6109df82611889565b6000806040838503121561193957600080fd5b61194283611889565b91506020830135801515811461195757600080fd5b809150509250929050565b634e487b7160e01b600052604160045260246000fd5b6000806000806080858703121561198e57600080fd5b61199785611889565b93506119a560208601611889565b925060408501359150606085013567ffffffffffffffff808211156119c957600080fd5b818701915087601f8301126119dd57600080fd5b8135818111156119ef576119ef611962565b604051601f8201601f19908116603f01168101908382118183101715611a1757611a17611962565b816040528281528a6020848701011115611a3057600080fd5b82602086016020830137600060208483010152809550505050505092959194509250565b803563ffffffff811681146118a057600080fd5b600060208284031215611a7a57600080fd5b6109df82611a54565b60008060408385031215611a9657600080fd5b611a9f83611889565b9150611aad60208401611a54565b90509250929050565b60008060408385031215611ac957600080fd5b611ad283611889565b9150611aad60208401611889565b600181811c90821680611af457607f821691505b60208210811415611b1557634e487b7160e01b600052602260045260246000fd5b50919050565b60208082526031908201527f4552433732313a207472616e736665722063616c6c6572206973206e6f74206f6040820152701ddb995c881b9bdc88185c1c1c9bdd9959607a1b606082015260800190565b634e487b7160e01b600052603260045260246000fd5b6020808252818101527f4f776e61626c653a2063616c6c6572206973206e6f7420746865206f776e6572604082015260600190565b60008351611bc9818460208801611805565b835190830190611bdd818360208801611805565b01949350505050565b634e487b7160e01b600052601160045260246000fd5b600063ffffffff80831681811415611c1657611c16611be6565b6001019392505050565b600082821015611c3257611c32611be6565b500390565b60008219821115611c4a57611c4a611be6565b500190565b60208082526032908201527f4552433732313a207472616e7366657220746f206e6f6e20455243373231526560408201527131b2b4bb32b91034b6b83632b6b2b73a32b960711b606082015260800190565b6000600019821415611cb557611cb5611be6565b5060010190565b634e487b7160e01b600052601260045260246000fd5b600082611ce157611ce1611cbc565b500490565b600082611cf557611cf5611cbc565b500690565b6001600160a01b0385811682528416602082015260408101839052608060608201819052600090611d2d90830184611831565b9695505050505050565b600060208284031215611d4957600080fd5b81516109df816117d2565b634e487b7160e01b600052603160045260246000fdfea2646970667358221220b735b04f968b8b1970ead177756ee99b3898f49a610dd2ca15c82bfd5e0a2e2a64736f6c63430008090033",
  "linkReferences": {},
  "deployedLinkReferences": {}
}