{
  "_format": "hh-sol-artifact-1",
  "contractName": "DeviantsFactions",
  "sourceName": "contracts/DeviantsFactions.sol",
  "abi": [
    {
      "inputs": [],
      "stateMutability": "nonpayable",
      "type": "constructor"
    },
    {
      "anonymous": false,
      "inputs": [
        {
          "indexed": true,
          "internalType": "address",
          "name": "previousOwner",
          "type": "address"
        },
        {
          "indexed": true,
          "internalType": "address",
          "name": "newOwner",
          "type": "address"
        }
      ],
      "name": "OwnershipTransferred",
      "type": "event"
    },
    {
      "anonymous": false,
      "inputs": [
        {
          "indexed": false,
          "internalType": "uint32[]",
          "name": "result",
          "type": "uint32[]"
        }
      ],
      "name": "denomConverted",
      "type": "event"
    },
    {
      "inputs": [],
      "name": "NFTContract",
      "outputs": [
        {
          "internalType": "address",
          "name": "",
          "type": "address"
        }
      ],
      "stateMutability": "view",
      "type": "function"
    },
    {
      "inputs": [
        {
          "internalType": "uint32[6]",
          "name": "newStock",
          "type": "uint32[6]"
        }
      ],
      "name": "changeStock",
      "outputs": [],
      "stateMutability": "nonpayable",
      "type": "function"
    },
    {
      "inputs": [
        {
          "internalType": "uint32",
          "name": "amount",
          "type": "uint32"
        }
      ],
      "name": "convertDenom",
      "outputs": [],
      "stateMutability": "nonpayable",
      "type": "function"
    },
    {
      "inputs": [
        {
          "internalType": "uint256",
          "name": "",
          "type": "uint256"
        }
      ],
      "name": "denominations",
      "outputs": [
        {
          "internalType": "uint8",
          "name": "",
          "type": "uint8"
        }
      ],
      "stateMutability": "view",
      "type": "function"
    },
    {
      "inputs": [],
      "name": "getStock",
      "outputs": [
        {
          "internalType": "uint32[]",
          "name": "",
          "type": "uint32[]"
        }
      ],
      "stateMutability": "view",
      "type": "function"
    },
    {
      "inputs": [],
      "name": "owner",
      "outputs": [
        {
          "internalType": "address",
          "name": "",
          "type": "address"
        }
      ],
      "stateMutability": "view",
      "type": "function"
    },
    {
      "inputs": [],
      "name": "renounceOwnership",
      "outputs": [],
      "stateMutability": "nonpayable",
      "type": "function"
    },
    {
      "inputs": [
        {
          "internalType": "address",
          "name": "_NFTContract",
          "type": "address"
        }
      ],
      "name": "setNFTContract",
      "outputs": [],
      "stateMutability": "nonpayable",
      "type": "function"
    },
    {
      "inputs": [
        {
          "internalType": "uint256",
          "name": "",
          "type": "uint256"
        }
      ],
      "name": "stock",
      "outputs": [
        {
          "internalType": "uint32",
          "name": "",
          "type": "uint32"
        }
      ],
      "stateMutability": "view",
      "type": "function"
    },
    {
      "inputs": [
        {
          "internalType": "address",
          "name": "newOwner",
          "type": "address"
        }
      ],
      "name": "transferOwnership",
      "outputs": [],
      "stateMutability": "nonpayable",
      "type": "function"
    }
  ],
  "bytecode": "0x600660808181526101606040529060a060c080368337505081516200002c92600192506020019062000155565b5060408051600680825260e08201909252906020820160c080368337505081516200005f92600292506020019062000202565b503480156200006d57600080fd5b50620000793362000105565b6040805160c0810182526064815260326020820152601491810191909152600a606082015260056080820152600160a08201819052620000bb91600662000155565b506040805160c081018252600080825260208201819052918101829052606081018290526080810182905260a0810191909152620000fe906002906006620002a4565b5062000328565b600080546001600160a01b038381166001600160a01b0319831681178455604051919092169283917f8be0079c531659141344cd1fd0a4f28419497f9722a3daafe3b4186f6b6457e09190a35050565b82805482825590600052602060002090601f01602090048101928215620001f05791602002820160005b83821115620001bf57835183826101000a81548160ff021916908360ff16021790555092602001926001016020816000010492830192600103026200017f565b8015620001ee5782816101000a81549060ff0219169055600101602081600001049283019260010302620001bf565b505b50620001fe92915062000311565b5090565b82805482825590600052602060002090600701600890048101928215620001f05791602002820160005b838211156200027257835183826101000a81548163ffffffff021916908363ffffffff16021790555092602001926004016020816003010492830192600103026200022c565b8015620001ee5782816101000a81549063ffffffff021916905560040160208160030104928301926001030262000272565b82805482825590600052602060002090600701600890048101928215620001f05791602002820160005b838211156200027257835183826101000a81548163ffffffff021916908360ff1602179055509260200192600401602081600301049283019260010302620002ce565b5b80821115620001fe576000815560010162000312565b610ccd80620003386000396000f3fe608060405234801561001057600080fd5b506004361061009e5760003560e01c80638da5cb5b116100665780638da5cb5b1461012b578063a7ccabdf1461013c578063e38ffcd81461014f578063f2fde38b14610164578063f3ce61ad1461017757600080fd5b80630179bd36146100a357806331c2273b146100b8578063715018a6146100e857806383cf1021146100f057806387b7f21414610118575b600080fd5b6100b66100b1366004610a19565b61019c565b005b6003546100cb906001600160a01b031681565b6040516001600160a01b0390911681526020015b60405180910390f35b6100b6610630565b6101036100fe366004610a3b565b610666565b60405163ffffffff90911681526020016100df565b6100b6610126366004610a6a565b6106a0565b6000546001600160a01b03166100cb565b6100b661014a366004610afd565b6107bb565b61015761085d565b6040516100df9190610b26565b6100b6610172366004610afd565b6108e1565b61018a610185366004610a3b565b61097c565b60405160ff90911681526020016100df565b60008163ffffffff1667ffffffffffffffff8111156101bd576101bd610a54565b6040519080825280602002602001820160405280156101e6578160200160208202803683370190505b5090506000805b60015460ff821610156104ec5763ffffffff841661020a576104ec565b600060018260ff168154811061022257610222610b70565b60009182526020918290209181049091015461024a91601f166101000a900460ff1686610b9c565b905060028260ff168154811061026257610262610b70565b90600052602060002090600891828204019190066004029054906101000a900463ffffffff1663ffffffff168163ffffffff1611156102da5760028260ff16815481106102b1576102b1610b70565b90600052602060002090600891828204019190066004029054906101000a900463ffffffff1690505b8060028360ff16815481106102f1576102f1610b70565b90600052602060002090600891828204019190066004028282829054906101000a900463ffffffff166103249190610bcd565b92506101000a81548163ffffffff021916908363ffffffff1602179055506000600190505b8163ffffffff168160ff161161048d5760018360ff168154811061036f5761036f610b70565b90600052602060002090602091828204019190069054906101000a900460ff1660ff16858563ffffffff16815181106103aa576103aa610b70565b63ffffffff90921660209283029190910190910152836103c981610bf2565b600354600180549297506001600160a01b03909116925063d35e29d79133919060ff88169081106103fc576103fc610b70565b6000918252602091829020918104909101546040516001600160e01b031960e086901b1681526001600160a01b03909316600484015260ff601f9092166101000a9004166024820152604401600060405180830381600087803b15801561046257600080fd5b505af1158015610476573d6000803e3d6000fd5b50505050808061048590610c16565b915050610349565b5060018260ff16815481106104a4576104a4610b70565b6000918252602091829020918104909101546104cc91601f166101000a900460ff1682610c36565b6104d69086610bcd565b94505080806104e490610c16565b9150506101ed565b5063ffffffff8316156105385760405162461bcd60e51b815260206004820152600f60248201526e4e6f7420656e6f756768204e46547360881b60448201526064015b60405180910390fd5b60008163ffffffff1667ffffffffffffffff81111561055957610559610a54565b604051908082528060200260200182016040528015610582578160200160208202803683370190505b50905060005b8263ffffffff168160ff1610156105f257838160ff16815181106105ae576105ae610b70565b6020026020010151828260ff16815181106105cb576105cb610b70565b63ffffffff90921660209283029190910190910152806105ea81610c16565b915050610588565b507fad2ab4bb40b40d9391de074f8d948b9d97fc5e0422080689b2648c5ec2db88ee816040516106229190610b26565b60405180910390a150505050565b6000546001600160a01b0316331461065a5760405162461bcd60e51b815260040161052f90610c62565b61066460006109b0565b565b6002818154811061067657600080fd5b9060005260206000209060089182820401919006600402915054906101000a900463ffffffff1681565b6000546001600160a01b031633146106ca5760405162461bcd60e51b815260040161052f90610c62565b6002546006146107325760405162461bcd60e51b815260206004820152602d60248201527f6e657753746f636b206c656e677468206d75737420626520657175616c20746f60448201526c040e6e8dec6d640d8cadccee8d609b1b606482015260840161052f565b60005b60068160ff1610156107b757818160ff166006811061075657610756610b70565b602002015160028260ff168154811061077157610771610b70565b90600052602060002090600891828204019190066004026101000a81548163ffffffff021916908363ffffffff16021790555080806107af90610c16565b915050610735565b5050565b6000546001600160a01b031633146107e55760405162461bcd60e51b815260040161052f90610c62565b6001600160a01b03811661083b5760405162461bcd60e51b815260206004820152601f60248201527f4e4654436f6e74726163742063616e6e6f742062652041646472657373203000604482015260640161052f565b600380546001600160a01b0319166001600160a01b0392909216919091179055565b606060028054806020026020016040519081016040528092919081815260200182805480156108d757602002820191906000526020600020906000905b82829054906101000a900463ffffffff1663ffffffff168152602001906004019060208260030104928301926001038202915080841161089a5790505b5050505050905090565b6000546001600160a01b0316331461090b5760405162461bcd60e51b815260040161052f90610c62565b6001600160a01b0381166109705760405162461bcd60e51b815260206004820152602660248201527f4f776e61626c653a206e6577206f776e657220697320746865207a65726f206160448201526564647265737360d01b606482015260840161052f565b610979816109b0565b50565b6001818154811061098c57600080fd5b9060005260206000209060209182820401919006915054906101000a900460ff1681565b600080546001600160a01b038381166001600160a01b0319831681178455604051919092169283917f8be0079c531659141344cd1fd0a4f28419497f9722a3daafe3b4186f6b6457e09190a35050565b803563ffffffff81168114610a1457600080fd5b919050565b600060208284031215610a2b57600080fd5b610a3482610a00565b9392505050565b600060208284031215610a4d57600080fd5b5035919050565b634e487b7160e01b600052604160045260246000fd5b600060c08284031215610a7c57600080fd5b82601f830112610a8b57600080fd5b60405160c0810181811067ffffffffffffffff82111715610abc57634e487b7160e01b600052604160045260246000fd5b6040528060c0840185811115610ad157600080fd5b845b81811015610af257610ae481610a00565b835260209283019201610ad3565b509195945050505050565b600060208284031215610b0f57600080fd5b81356001600160a01b0381168114610a3457600080fd5b6020808252825182820181905260009190848201906040850190845b81811015610b6457835163ffffffff1683529284019291840191600101610b42565b50909695505050505050565b634e487b7160e01b600052603260045260246000fd5b634e487b7160e01b600052601160045260246000fd5b600063ffffffff80841680610bc157634e487b7160e01b600052601260045260246000fd5b92169190910492915050565b600063ffffffff83811690831681811015610bea57610bea610b86565b039392505050565b600063ffffffff80831681811415610c0c57610c0c610b86565b6001019392505050565b600060ff821660ff811415610c2d57610c2d610b86565b60010192915050565b600063ffffffff80831681851681830481118215151615610c5957610c59610b86565b02949350505050565b6020808252818101527f4f776e61626c653a2063616c6c6572206973206e6f7420746865206f776e657260408201526060019056fea2646970667358221220818462e6ceb1bf1bb5807ff381a15b594396d4198c5f26536cb1bae8dfcbc64b64736f6c63430008090033",
  "linkReferences": {},
  "deployedLinkReferences": {}
}